{
  "_format": "hh-sol-artifact-1",
  "contractName": "Transactions",
  "sourceName": "contracts/Transactions.sol",
  "abi": [
    {
      "anonymous": false,
      "inputs": [
        {
          "indexed": false,
          "internalType": "address",
          "name": "sender",
          "type": "address"
        },
        {
          "indexed": false,
          "internalType": "address",
          "name": "receiver",
          "type": "address"
        },
        {
          "indexed": false,
          "internalType": "uint256",
          "name": "amount",
          "type": "uint256"
        },
        {
          "indexed": false,
          "internalType": "string",
          "name": "message",
          "type": "string"
        },
        {
          "indexed": false,
          "internalType": "uint256",
          "name": "timestamp",
          "type": "uint256"
        },
        {
          "indexed": false,
          "internalType": "string",
          "name": "keyword",
          "type": "string"
        }
      ],
      "name": "Transfer",
      "type": "event"
    },
    {
      "inputs": [
        {
          "internalType": "address payable",
          "name": "receiver",
          "type": "address"
        },
        {
          "internalType": "uint256",
          "name": "amount",
          "type": "uint256"
        },
        {
          "internalType": "string",
          "name": "message",
          "type": "string"
        },
        {
          "internalType": "string",
          "name": "keyword",
          "type": "string"
        }
      ],
      "name": "addToBlockchain",
      "outputs": [],
      "stateMutability": "nonpayable",
      "type": "function"
    },
    {
      "inputs": [],
      "name": "getAllTransactions",
      "outputs": [
        {
          "components": [
            {
              "internalType": "address",
              "name": "sender",
              "type": "address"
            },
            {
              "internalType": "address",
              "name": "receiver",
              "type": "address"
            },
            {
              "internalType": "uint256",
              "name": "amount",
              "type": "uint256"
            },
            {
              "internalType": "string",
              "name": "message",
              "type": "string"
            },
            {
              "internalType": "uint256",
              "name": "timestamp",
              "type": "uint256"
            },
            {
              "internalType": "string",
              "name": "keyword",
              "type": "string"
            }
          ],
          "internalType": "struct Transactions.TransferStruct[]",
          "name": "",
          "type": "tuple[]"
        }
      ],
      "stateMutability": "view",
      "type": "function"
    },
    {
      "inputs": [],
      "name": "transactionCounter",
      "outputs": [
        {
          "internalType": "uint256",
          "name": "",
          "type": "uint256"
        }
      ],
      "stateMutability": "view",
      "type": "function"
    }
  ],
  "bytecode": "0x60806040526000805534801561001457600080fd5b50610c0a806100246000396000f3fe608060405234801561001057600080fd5b50600436106100415760003560e01c806314e887e81461004657806327506f5314610064578063cc2d7ead14610082575b600080fd5b61004e61009e565b60405161005b91906108d8565b60405180910390f35b61006c6100a4565b60405161007991906108b6565b60405180910390f35b61009c600480360381019061009791906105de565b6102e7565b005b60005481565b60606001805480602002602001604051908101604052809291908181526020016000905b828210156102de57838290600052602060002090600602016040518060c00160405290816000820160009054906101000a900473ffffffffffffffffffffffffffffffffffffffff1673ffffffffffffffffffffffffffffffffffffffff1673ffffffffffffffffffffffffffffffffffffffff1681526020016001820160009054906101000a900473ffffffffffffffffffffffffffffffffffffffff1673ffffffffffffffffffffffffffffffffffffffff1673ffffffffffffffffffffffffffffffffffffffff168152602001600282015481526020016003820180546101b190610ad6565b80601f01602080910402602001604051908101604052809291908181526020018280546101dd90610ad6565b801561022a5780601f106101ff5761010080835404028352916020019161022a565b820191906000526020600020905b81548152906001019060200180831161020d57829003601f168201915b505050505081526020016004820154815260200160058201805461024d90610ad6565b80601f016020809104026020016040519081016040528092919081815260200182805461027990610ad6565b80156102c65780601f1061029b576101008083540402835291602001916102c6565b820191906000526020600020905b8154815290600101906020018083116102a957829003601f168201915b505050505081525050815260200190600101906100c8565b50505050905090565b60016040518060c001604052803373ffffffffffffffffffffffffffffffffffffffff1681526020018673ffffffffffffffffffffffffffffffffffffffff16815260200185815260200184815260200142815260200183815250908060018154018082558091505060019003906000526020600020906006020160009091909190915060008201518160000160006101000a81548173ffffffffffffffffffffffffffffffffffffffff021916908373ffffffffffffffffffffffffffffffffffffffff16021790555060208201518160010160006101000a81548173ffffffffffffffffffffffffffffffffffffffff021916908373ffffffffffffffffffffffffffffffffffffffff16021790555060408201518160020155606082015181600301908051906020019061041f9291906104a9565b506080820151816004015560a08201518160050190805190602001906104469291906104a9565b5050507f416cfa4330a4565f45c2fd2dd4826a83a37443aba2ce6f79477c7355afac35fa33858585428660405161048296959493929190610847565b60405180910390a1600160008082825461049c91906109ba565b9250508190555050505050565b8280546104b590610ad6565b90600052602060002090601f0160209004810192826104d7576000855561051e565b82601f106104f057805160ff191683800117855561051e565b8280016001018555821561051e579182015b8281111561051d578251825591602001919060010190610502565b5b50905061052b919061052f565b5090565b5b80821115610548576000816000905550600101610530565b5090565b600061055f61055a84610924565b6108f3565b90508281526020810184848401111561057757600080fd5b610582848285610a94565b509392505050565b60008135905061059981610ba6565b92915050565b600082601f8301126105b057600080fd5b81356105c084826020860161054c565b91505092915050565b6000813590506105d881610bbd565b92915050565b600080600080608085870312156105f457600080fd5b60006106028782880161058a565b9450506020610613878288016105c9565b935050604085013567ffffffffffffffff81111561063057600080fd5b61063c8782880161059f565b925050606085013567ffffffffffffffff81111561065957600080fd5b6106658782880161059f565b91505092959194509250565b600061067d8383610799565b905092915050565b61068e81610a5e565b82525050565b61069d81610a10565b82525050565b6106ac81610a10565b82525050565b60006106bd82610964565b6106c78185610987565b9350836020820285016106d985610954565b8060005b8581101561071557848403895281516106f68582610671565b94506107018361097a565b925060208a019950506001810190506106dd565b50829750879550505050505092915050565b60006107328261096f565b61073c8185610998565b935061074c818560208601610aa3565b61075581610b95565b840191505092915050565b600061076b8261096f565b61077581856109a9565b9350610785818560208601610aa3565b61078e81610b95565b840191505092915050565b600060c0830160008301516107b16000860182610694565b5060208301516107c46020860182610694565b5060408301516107d76040860182610829565b50606083015184820360608601526107ef8282610727565b91505060808301516108046080860182610829565b5060a083015184820360a086015261081c8282610727565b9150508091505092915050565b61083281610a54565b82525050565b61084181610a54565b82525050565b600060c08201905061085c60008301896106a3565b6108696020830188610685565b6108766040830187610838565b81810360608301526108888186610760565b90506108976080830185610838565b81810360a08301526108a98184610760565b9050979650505050505050565b600060208201905081810360008301526108d081846106b2565b905092915050565b60006020820190506108ed6000830184610838565b92915050565b6000604051905081810181811067ffffffffffffffff8211171561091a57610919610b66565b5b8060405250919050565b600067ffffffffffffffff82111561093f5761093e610b66565b5b601f19601f8301169050602081019050919050565b6000819050602082019050919050565b600081519050919050565b600081519050919050565b6000602082019050919050565b600082825260208201905092915050565b600082825260208201905092915050565b600082825260208201905092915050565b60006109c582610a54565b91506109d083610a54565b9250827fffffffffffffffffffffffffffffffffffffffffffffffffffffffffffffffff03821115610a0557610a04610b08565b5b828201905092915050565b6000610a1b82610a34565b9050919050565b6000610a2d82610a34565b9050919050565b600073ffffffffffffffffffffffffffffffffffffffff82169050919050565b6000819050919050565b6000610a6982610a70565b9050919050565b6000610a7b82610a82565b9050919050565b6000610a8d82610a34565b9050919050565b82818337600083830152505050565b60005b83811015610ac1578082015181840152602081019050610aa6565b83811115610ad0576000848401525b50505050565b60006002820490506001821680610aee57607f821691505b60208210811415610b0257610b01610b37565b5b50919050565b7f4e487b7100000000000000000000000000000000000000000000000000000000600052601160045260246000fd5b7f4e487b7100000000000000000000000000000000000000000000000000000000600052602260045260246000fd5b7f4e487b7100000000000000000000000000000000000000000000000000000000600052604160045260246000fd5b6000601f19601f8301169050919050565b610baf81610a22565b8114610bba57600080fd5b50565b610bc681610a54565b8114610bd157600080fd5b5056fea2646970667358221220f0e173871fcb8917cfb800f6381a570872650048badfa4a742f9c0043721166864736f6c63430008000033",
  "linkReferences": {},
  "deployedLinkReferences": {}
}